:020000040800F2
:10000000102000201D010008C3040008EB020008B6
:10001000BF040008E5020008850500080000000094
:1000200000000000000000000000000001050008C2
:10003000E902000800000000C504000803050008EC
:1000400037010008370100083701000837010008B0
:1000500037010008370100083701000837010008A0
:100060003701000837010008370100083701000890
:100070003701000837010008370100083701000880
:100080003701000837010008370100083701000870
:100090003701000837010008370100083701000860
:1000A0003701000837010008370100083701000850
:1000B0003701000837010008370100083701000840
:1000C0003701000837010008370100083701000830
:1000D0003701000837010008370100083701000820
:1000E0003701000837010008370100080000000050
:1000F0000000000000000000000000000000000000
:1001000037010008DFF810D000F0DAF800480047A7
:100110002F070008AFF3008010200020064880471A
:1001200006480047FEE7FEE7FEE7FEE7FEE7FEE7DC
:10013000FEE7FEE7FEE7FEE705050008050100080B
:1001400080EA010210B502F00043400022D04A00CC
:100150001FD0010E01EB1261C0F35600C2F356022C
:1001600040F4000042F40002A0FB022000047F39AA
:10017000140400D0401C50EA124001D44000491E33
:10018000C2B20C0604EBD010401C4008802A02D0FA
:1001900003E0002010BD20F00100002900DA00205B
:1001A000184310BD30B480EA010202F0004530F07F
:1001B000004221F0004013D090B1C30DD40DC2F322
:1001C0001601C0F31600E41A41F4000140F40002E5
:1001D0007D34914201D3641C00E04900002C02DA16
:1001E00030BC002070474FF400000023914201D33F
:1001F000891A034340084FEA4101F7D151B19142B6
:1002000002D14FF0004105E002D24FF0010101E0C0
:100210006FF0010103EBC450284430BC00F019B862
:1002200096230022114600F01DB820F00040C10DB9
:10023000C0F3160040F400007F2901DA0020704767
:10024000962903DCC1F19601C84070479639884071
:1002500070470029A8BF7047401C490008BF20F024
:100260000100704710B4B0FA80FC00FA0CF050EABC
:10027000010404BF10BC704749B1CCF1200421FA3D
:1002800004F411FA0CF118BF012121430843A3EB38
:100290000C01CB1D4FEA00614FEA102042BF002045
:1002A00010BC704700EBC35010440029A4BF10BC21
:1002B0007047401C490008BF20F0010010BC704787
:1002C000064C074D06E0E06840F0010394E80700A3
:1002D00098471034AC42F6D3FFF718FFAC0800087B
:1002E000CC08000800BFFEE7704700BFFEE7000033
:1002F00010B540F2036000F02DFA402303221021D4
:10030000044800F0B6F9802303221021014800F0D0
:10031000B0F910BD000C014070B5044600F0E2F8E1
:1003200000224021154800F09FF9002523E0E00954
:1003300028B101228021114800F096F904E0002242
:1003400080210E4800F090F96006040E082000F0AD
:100350005BF901224021094800F086F9082000F0ED
:1003600053F900224021054800F07EF9082000F0F2
:100370004BF9681CC5B2082DD9DB70BD000C0140DB
:1003800010B500F0AFF8012280210C4800F06CF9A4
:1003900001224021094800F067F9102000F034F9EB
:1003A00000228021054800F05FF9102000F02CF9B0
:1003B00000224021014800F057F910BD000C014017
:1003C00010B500F08FF8002240210C4800F04CF9E5
:1003D00000228021094800F047F9102000F014F9AC
:1003E00001224021054800F03FF901228021034805
:1003F00000F03AF9102000F007F910BD000C0140A0
:1004000010B5002400F060F801228021114800F0AE
:100410002BF9042000F0F8F8012240210D4800F0EB
:1004200023F9042000F0F0F807E0601CC4B2FA2CB5
:1004300003DDFFF7C5FF012010BD8021054800F056
:100440006EF90028F1D100224021024800F00CF999
:100450000020F1E7000C014000F006F803E04FF443
:100460007A6000F005F8FAE710B5FFF741FF10BD1C
:1004700070B5044641F28830844200DB441E2003FC
:1004800041F2883190FBF1F085B205F470600612FC
:10049000FFF776FFC220FFF73FFFFFF7B1FF3046BF
:1004A000FFF73AFFFFF7ACFFE8B2FFF735FFFFF7C2
:1004B000A7FFFFF785FF0A2000F076F870BD00BFA8
:1004C000FEE770477047000010B540F2036000F08F
:1004D00041F9802303220421014800F0CAF810BD2D
:1004E000000C014010B540F2036000F033F98023A6
:1004F00003221021014800F0BCF810BD000C01409F
:100500007047704710B51448006840F00100124968
:10051000086008464068114908400F49486008468D
:1005200000680F4908400C4908600846006820F43C
:1005300080200860084640680A490840064948602B
:100540000846006806490840034908604FF41F0048
:10055000886000F071F910BD001002400C00FFE847
:10056000FFFFF6FEFFFF00F710B5002000F0E6F8F1
:100570004FF4C06000F0EEF800F076F9C82000F00B
:1005800013F810BD00BFFEE702E008C8121F08C143
:10059000002AFAD170477047002001E001C1121F04
:1005A000002AFBD1704700002DE9F041054628469E
:1005B000FFF736FE0746134801683846FFF7C0FDCF
:1005C0000646FFF732FE4FF0E021486100208861C7
:1005D0000120086100BF4FF0E020046904F0010031
:1005E00018B104F480300028F5D04FF0E020006905
:1005F00020F001004FF0E021086100208861BDE893
:10060000F0810000040000202DE9F0410546284655
:10061000FFF706FE0746134801683846FFF790FDCE
:100620000646FFF702FE4FF0E02148610020886196
:100630000120086100BF4FF0E020046904F00100D0
:1006400018B104F480300028F5D04FF0E0200069A4
:1006500020F001004FF0E021086100208861BDE832
:10066000F0810000000000200AB1016100E041615A
:100670007047F0B5044616460025002201F00F052C
:1006800001F0100707B1354300201EE00127874025
:100690001F40C7B122684FEA800C0F2707FA0CF7FA
:1006A000BA43870005FA07F73A43282904D10127FE
:1006B00087401F40676105E0482903D10127874033
:1006C0001F4027612260471CB8B20828DED30820EB
:1006D00022E0012787401F40E7B16268A0F10807C8
:1006E0004FEA870C0F2707FA0CF7BA43A0F1080767
:1006F000BF0005FA07F73A43282904D101278740AC
:100700001F40676105E0482903D1012787401F404A
:1007100027616260471CB8B21028DAD3F0BD0246E8
:100720009068084008B1012070470020FCE710B530
:10073000FFF71AFFFFF790FE002010BD044A516832
:1007400021F0F00141EA0002014B5A6070470000BD
:1007500000100240064A02EB9011096800F01F03E6
:1007600001229A401143024B03EB90121160704733
:1007700000100240002000212C4A126842F480320E
:100780002A4B1A6000BF401C284A126802F400314C
:1007900019B94FF6FF729042F5D1244A126802F45B
:1007A00000320AB900BFFEE7204A52681F4B5A6068
:1007B0001A4652685A601A46526842F480625A6079
:1007C0001A46526822F440325A601A46526842F47D
:1007D00040325A601A465268154B1A40134B5A6001
:1007E0001A465268134B1A43104B5A601A46126845
:1007F00042F080721A6000BF0C4A126802F0007268
:10080000002AF9D0094A526822F00302074B5A60C5
:100810001A46526842F002025A6000BF034A526808
:1008200002F00802002AF9D07047000000100240D0
:10083000FFFFC3F70000280810B5FFF79BFF10BDAE
:10084000042808D14FF0E021096941F004014FF07C
:10085000E022116107E04FF0E021096921F0040175
:100860004FF0E0221161704710B56FF00400FFF700
:10087000E7FF09480068FFF7D3FC04460749FFF784
:1008800091FC07490860074905480068FFF758FCD4
:100890000549086010BD0000080000200024F44A4B
:1008A0000000002000007A4404000020CC0800086A
:1008B000000000200C00000088050008D80800088F
:1008C0000C00002004200000980500080000000033
:0808D0000000000000F36F06B8
:0400000508000105E9
:00000001FF
