:020000040800F2
:10000000182000201D010008FD080008E70800086E
:10001000F9080008E1080008550B0008000000007E
:10002000000000000000000000000000BB0A000803
:10003000E508000800000000FF080008BD0A0008ED
:1000400037010008370100083701000837010008B0
:1000500037010008370100083701000837010008A0
:100060003701000837010008370100083701000890
:100070003701000837010008370100083701000880
:100080003701000837010008370100083701000870
:100090003701000837010008370100083701000860
:1000A0003701000837010008370100083701000850
:1000B0003701000837010008370100083701000840
:1000C0003701000837010008370100083701000830
:1000D00037010008410B000837010008370100080C
:1000E0003701000837010008370100080000000050
:1000F0000000000000000000000000000000000000
:1001000037010008DFF810D000F024FB004800475A
:10011000030D0008AFF30080182000200648804738
:1001200006480047FEE7FEE7FEE7FEE7FEE7FEE7DC
:10013000FEE7FEE7FEE7FEE7C10A0008050100084A
:1001400080EA010210B502F00043400022D04A00CC
:100150001FD0010E01EB1261C0F35600C2F356022C
:1001600040F4000042F40002A0FB022000047F39AA
:10017000140400D0401C50EA124001D44000491E33
:10018000C2B20C0604EBD010401C4008802A02D0FA
:1001900003E0002010BD20F00100002900DA00205B
:1001A000184310BD30B480EA010202F0004530F07F
:1001B000004221F0004013D090B1C30DD40DC2F322
:1001C0001601C0F31600E41A41F4000140F40002E5
:1001D0007D34914201D3641C00E04900002C02DA16
:1001E00030BC002070474FF400000023914201D33F
:1001F000891A034340084FEA4101F7D151B19142B6
:1002000002D14FF0004105E002D24FF0010101E0C0
:100210006FF0010103EBC450284430BC00F005BA74
:100220002DE9FE4F804681EA0300C00F0C46009086
:1002300021F0004123F00045B8EB0200A94105D2AE
:100240004046214690461C460B46024623F000409D
:10025000104347D0270DC7F30A00C3F30A51029099
:10026000401A019040286BDAC3F3130040F4801B5E
:100270000098924620B10023D2EB030A63EB0B0BEC
:1002800001985946C0F14002504600F0ADF90646CB
:100290000D4650465946019A00F0B5F910EB08009A
:1002A0006141002487EA115284EAE7731A4340D07F
:1002B000009A62B3019A012A4FEA075215DC001B2B
:1002C00061EB02014FF0004202EA0752CDE9004221
:1002D000001C41F5801132462B4600F0ECF903B0CA
:1002E000BDE8F08F40462146F9E7001B61EB0201B3
:1002F000001C41F5801300185B412018A2F500177F
:1003000047EB030140EAD570B6196D4111E06D0865
:100310004FEA360645EAC0754FEA0752001B61EB0B
:100320000201001C41F5801149084FEA3000001914
:10033000514132462B4603B0BDE8F04F00F0ACB956
:100340000098012240000023D0EB020263EBE0732F
:10035000009821464FEAE074B8EB000061EB04011D
:10036000E9E783F000435BE781F0004158E72DE9BE
:10037000FE4F81EA030404F0004421F000410094A0
:100380004FF0000B23F0004350EA01045ED052EA24
:1003900003045BD0C3F30A54C1F30A552C44A4F2FE
:1003A000F3340194A0FB0254C1F3130141F4801112
:1003B000C3F3130343F4801301FB024400FB034E19
:1003C000840A970A44EA815447EA8357A4FB0768E2
:1003D00002958D0A05FB07854FEA932C04FB0C540C
:1003E0002705029D4FEA065847EA1637B5EB080580
:1003F0006EEB070C870E920E47EA811742EA8312D2
:10040000A7FB0201B6EB0B0164EB00042B0D43EAE2
:100410000C335E1844EB1C50DA465146E7FB0201F0
:10042000C5F313044FEA0B3343EA14534FEA043283
:10043000019C43EA0603A4F10C040294009CCDE95C
:1004400000B400F038F903B0BDE8F08F0020014699
:10045000F9E72DE9F04D81EA030404F0004B21F0A7
:10046000004514464FF0000A23F0004150EA05020F
:1004700020D054EA01021DD0C5F30A570246C5F345
:100480001303C1F31300C1F30A5640F4801543F47B
:100490008013A7EB0608101BD64608F2FD3873EB55
:1004A000050002D308F1010801E092185B41B8F1A0
:1004B000000F03DA00200146BDE8F08D00204FF464
:1004C0008011064684460EE0171B73EB050705D323
:1004D000121B63EB050306434CEA010C49084FEA83
:1004E000300092185B4150EA0107EDD152EA030057
:1004F00012D082EA040083EA0501084305D0101BEC
:10050000AB4106D20122002306E000224FF0004357
:1005100002E06FF0010253101AEB06004CEB085199
:1005200010EB0A0041EB0B01BDE8F04D00F0B4B850
:1005300096230022114600F081B820F00040C10D42
:10054000C0F3160040F400007F2901DA0020704754
:10055000962903DCC1F19601C8407047963988405E
:10056000704700F0004230F000400AD0C10D01F5A4
:100570006071C0F3160042EA0151C20840071143FE
:10058000704700200146704701F0004330B421F06D
:10059000004150EA010206D00A0DA2F56072C1F3D3
:1005A0001301002A02DC30BC00207047440F44EAEB
:1005B000C104C100E01830BC00EBC25000F035B8F7
:1005C000002801DBC0F10040002901DBC1F100413E
:1005D00081427047002801DBC0F10040002901DBA7
:1005E000C1F1004188427047202A04DB203A00FA1A
:1005F00002F1002070479140C2F1200320FA03F37A
:10060000194390407047202A06DBCB17203A41FA65
:1006100002F043EAE07306E041FA02F3D040C2F18F
:10062000200291400843194670470029A8BF70472F
:10063000401C490008BF20F00100704710B4B0FA18
:1006400080FC00FA0CF050EA010404BF10BC7047B3
:1006500049B1CCF1200421FA04F411FA0CF118BFCD
:10066000012121430843A3EB0C01CB1D4FEA00619C
:100670004FEA102042BF002010BC704700EBC3506F
:1006800010440029A4BF10BC7047401C490008BF9B
:1006900020F0010010BC704710B5141E73F1000467
:1006A00008DA401C41F1000192185B411A4301D164
:1006B00020F0010010BD2DE9F04D92469B4611B18E
:1006C000B1FA81F202E0B0FA80F220329046FFF7F0
:1006D0008BFF04460F4640EA0A0041EA0B015346ED
:1006E0005A46084313D0114653EA010019D0C8F105
:1006F0004002504600F040F805460E465046594626
:100700004246FFF771FF084305D0012004E0204670
:100710003946BDE8F08D0020054346EAE0762C43DB
:1007200037430A986305E40AA0EB08000022FD0A9B
:1007300044EA47540A3002D500200146E9E70105A2
:1007400010196941DDE9084500196941BDE8F04D1E
:10075000A2E70000064C074D06E0E06840F0010308
:1007600094E8070098471034AC42F6D3FFF7CEFC6C
:100770009C0E0008BC0E0008202A04DB203A21FA57
:1007800002F00021704721FA02F3D040C2F12002AA
:10079000914008431946704710B540F2036000F0DD
:1007A000C3FAC02303221421034800F04CFAC021ED
:1007B000014800F041FA10BD000C014010B5802145
:1007C000044800F096FA04460A2000F005FA204694
:1007D00010BD0000000C014010B5012000F072F8BF
:1007E000012000F061F8FFF7E9FF0446002000F067
:1007F0005BF8204610BD70B50025012000F062F8BE
:1008000000240EE0012000F04FF8FFF7D7FF012889
:1008100002D1802020410543002000F045F8601CF3
:10082000C4B2082CEEDB284670BD10B50446204645
:1008300000F048F8012000F037F8002000F034F80C
:1008400010BD70B50546002412E0802020412840EC
:1008500018B1012000F036F802E0002000F032F874
:10086000012000F021F8002000F01EF8601CC4B246
:10087000082CEADB70BD10B5012000F023F8012040
:1008800000F012F8002000F01DF8002000F00CF835
:1008900010BD10B5002000F015F8012000F004F89C
:1008A000012000F00FF810BD10B50446224640218B
:1008B000034800F0C3F90A2000F08EF910BD0000D3
:1008C000000C014010B5044622468021034800F088
:1008D000B5F90A2000F080F910BD0000000C0140BD
:1008E00000BFFEE7704700BFFEE700F0CFF802E070
:1008F000442000F005F8FBE700BFFEE770477047B3
:100900002DE9F04F87B00446FFF7B5FF002141EA1B
:100910004401C8B2FFF795FFFFF75EFF2C20FFF7F9
:1009200090FFFFF759FF0620FFF78BFFFFF754FFFB
:10093000FFF7AFFF322000F01FF9FFF79CFF012106
:1009400001EB4401C8B2FFF77CFFFFF745FF58BB3E
:10095000FFF751FFADF810000020FFF766FFFFF72B
:100960004AFFADF812000020FFF75FFFFFF743FFDB
:10097000ADF814000020FFF758FFFFF73CFFADF87B
:1009800016000020FFF751FFFFF735FFADF8180004
:100990000020FFF74AFFFFF72EFFADF81A000120F5
:1009A000FFF743FFFFF775FFBDF81200BDF8101009
:1009B00040EA01201FFA80F9BDF81800BDF81610B2
:1009C00040EA01201FFA80FA4846FFF7B1FD83464E
:1009D000FFF7C7FD0022244BCDE90001FFF7C7FC5C
:1009E0000022224BCDE90201FFF733FD054600222C
:1009F0001F4BFFF7B6FC0746FFF7C6FD1D49086011
:100A00005046FFF795FD8346FFF7ABFD00221A4BDA
:100A1000CDE90201FFF7ABFC07460022134BFFF7BD
:100A200018FD0546FFF7B0FD144908601449114848
:100A30000068FFF7CFFD10D812490E480068FFF795
:100A4000BFFD0AD800210D480068FFF7C3FD04D898
:100A50000D490A480068FFF7B3FD4FF0000AD14680
:100A600007B0BDE8F08F000000E06540E0FFEF4018
:100A70000080464000000020000059400400002093
:100A80000000A0C10000FA420000C84210B5FFF704
:100A900083FEFFF7F0FE8820FFF7D3FEFFF79CFEF2
:100AA0002120FFF7CEFEFFF797FE3020FFF7C9FEAB
:100AB000FFF792FEFFF7EDFE10BD70477047000094
:100AC00010B51448006840F001001249086008465B
:100AD0004068114908400F494860084600680F49BE
:100AE00008400C4908600846006820F4802008602F
:100AF000084640680A4908400649486008460068B8
:100B000006490840034908604FF41F00886000F060
:100B10007DF910BD001002400C00FFE8FFFFF6FE5B
:100B2000FFFF00F710B5002000F0F2F84FF4C060AE
:100B300000F0FAF800F082F9C82000F01DF810BDAE
:100B400010B50249024800F09BF910BD05030500ED
:100B50000038014000BFFEE702E008C8121F08C1CC
:100B6000002AFAD170477047002001E001C1121F2E
:100B7000002AFBD1704700002DE9F04105462846C8
:100B8000FFF7D6FC0746134801683846FFF7D8FA46
:100B90000646FFF7D2FC4FF0E02148610020886153
:100BA0000120086100BF4FF0E020046904F001005B
:100BB00018B104F480300028F5D04FF0E02000692F
:100BC00020F001004FF0E021086100208861BDE8BD
:100BD000F08100000C0000202DE9F0410546284678
:100BE000FFF7A6FC0746134801683846FFF7A8FA46
:100BF0000646FFF7A2FC4FF0E02148610020886123
:100C00000120086100BF4FF0E020046904F00100FA
:100C100018B104F480300028F5D04FF0E0200069CE
:100C200020F001004FF0E021086100208861BDE85C
:100C3000F081000008000020016170470AB10161E5
:100C400000E041617047F0B50446164600250022D9
:100C500001F00F0501F0100707B1354300201EE039
:100C6000012787401F40C7B122684FEA800C0F2739
:100C700007FA0CF7BA43870005FA07F73A43282921
:100C800004D1012787401F40676105E0482903D14F
:100C9000012787401F4027612260471CB8B20828FF
:100CA000DED3082022E0012787401F40E7B16268B9
:100CB000A0F108074FEA870C0F2707FA0CF7BA4391
:100CC000A0F10807BF0005FA07F73A43282904D125
:100CD000012787401F40676105E0482903D10127AC
:100CE00087401F4027616260471CB8B21028DAD3E2
:100CF000F0BD02469068084008B10120704700200E
:100D0000FCE710B5FFF70EFFFFF7EFFD002010BD69
:100D1000044A516821F0F00141EA0002014B5A6097
:100D20007047000000100240064A02EB901109686B
:100D300000F01F0301229A401143024B03EB901273
:100D40001160704700100240002000212C4A1268F8
:100D500042F480322A4B1A6000BF401C284A1268B5
:100D600002F4003119B94FF6FF729042F5D1244ACE
:100D7000126802F400320AB900BFFEE7204A526846
:100D80001F4B5A601A4652685A601A46526842F41B
:100D900080625A601A46526822F440325A601A46FB
:100DA000526842F440325A601A465268154B1A4053
:100DB000134B5A601A465268134B1A43104B5A6031
:100DC0001A46126842F080721A6000BF0C4A12681C
:100DD00002F00072002AF9D0094A526822F0030298
:100DE000074B5A601A46526842F002025A6000BF2E
:100DF000034A526802F00802002AF9D07047000046
:100E000000100240FFFFC3F70000280810B5FFF7ED
:100E10009BFF10BD042808D14FF0E021096941F083
:100E200004014FF0E022116107E04FF0E021096971
:100E300021F004014FF0E0221161704710B56FF00E
:100E40000400FFF7E7FF09480068FFF771FB04465D
:100E50000749FFF7A7F907490860074905480068EF
:100E6000FFF76EF90549086010BD00001000002072
:100E70000024F44A0800002000007A440C000020FE
:100E800010B500EB91521268C1F304440123A34052
:100E90009A4300EB91531A6010BD0000BC0E00088D
:100EA0000000002014000000580B0008D00E0008BD
:100EB0001400002004200000680B0008000000005F
:100EC00000000000000000000000000000F36F06BA
:0400000508000105E9
:00000001FF
